{
  "_format": "hh-sol-artifact-1",
  "contractName": "HashAnchor",
  "sourceName": "contracts/HashAnchor.sol",
  "abi": [
    {
      "anonymous": false,
      "inputs": [
        {
          "indexed": false,
          "internalType": "string",
          "name": "_hash",
          "type": "string"
        },
        {
          "indexed": false,
          "internalType": "string",
          "name": "_data",
          "type": "string"
        },
        {
          "indexed": true,
          "internalType": "address",
          "name": "sender",
          "type": "address"
        }
      ],
      "name": "HashStored",
      "type": "event"
    },
    {
      "inputs": [
        {
          "internalType": "string",
          "name": "_hash",
          "type": "string"
        },
        {
          "internalType": "string",
          "name": "_data",
          "type": "string"
        }
      ],
      "name": "storeHash",
      "outputs": [],
      "stateMutability": "nonpayable",
      "type": "function"
    }
  ],
  "bytecode": "0x6080604052348015600f57600080fd5b506102658061001f6000396000f3fe608060405234801561001057600080fd5b506004361061002b5760003560e01c80636f28ee0914610030575b600080fd5b61004a60048036038101906100459190610115565b61004c565b005b3373ffffffffffffffffffffffffffffffffffffffff167ff3f093f4836158f26182f276988a0574087985dc96a2b9cb468e1f8c5c4ca2aa8585858560405161009894939291906101f4565b60405180910390a250505050565b600080fd5b600080fd5b600080fd5b600080fd5b600080fd5b60008083601f8401126100d5576100d46100b0565b5b8235905067ffffffffffffffff8111156100f2576100f16100b5565b5b60208301915083600182028301111561010e5761010d6100ba565b5b9250929050565b6000806000806040858703121561012f5761012e6100a6565b5b600085013567ffffffffffffffff81111561014d5761014c6100ab565b5b610159878288016100bf565b9450945050602085013567ffffffffffffffff81111561017c5761017b6100ab565b5b610188878288016100bf565b925092505092959194509250565b600082825260208201905092915050565b82818337600083830152505050565b6000601f19601f8301169050919050565b60006101d38385610196565b93506101e08385846101a7565b6101e9836101b6565b840190509392505050565b6000604082019050818103600083015261020f8186886101c7565b905081810360208301526102248184866101c7565b90509594505050505056fea2646970667358221220e981980d501f8fd3f81859430b33e9c16fc0c315a899e10208451862a078409864736f6c634300081c0033",
  "linkReferences": {},
  "deployedLinkReferences": {}
}